:020000040800F2
:1000000020090020D5000008D51B00086D19000844
:1000100000000000000000000000000000000000E0
:10002000000000000000000000000000271E000883
:1000300000000000000000001D1C0008291E000830
:10004000E7000008E7000008E7000008E7000008F4
:10005000E700000891080008E7000008A108000870
:10006000E7000008E7000008E7000008E7000008D4
:10007000E7000008E700000800000000E7000008B3
:1000800000000000E7000008000000000000000081
:10009000E700000800000000E7000008E700000893
:1000A000E7000008E7000008E7000008E700000894
:1000B000E7000008E7000008E7000008E700000884
:1000C0000348854600F0C2F800480047AD2E0008FE
:1000D000200900200448804704480047FEE7FEE767
:1000E000FEE7FEE7FEE7FEE7A11E0008C1000008EC
:1000F00030B50B46014600202022012409E00D46C0
:10010000D5409D4205D31D469540491B2546954047
:1001100040191546521E002DF1DC30BDF0B51FB45C
:100120000646002082B005464024019100901BE065
:10013000019922460F46304600F076F8049A059B56
:10014000801A994110D310461946224600F05CF8F7
:10015000361A8F410197224601200021009F00F0AE
:1001600053F838184D4100902046641E0028DFDC0B
:10017000019B00982946324607B0F0BD0549064A62
:1001800008685043054A80180860400870470149D4
:1001900008607047580000206D4EC641393000009D
:1001A00003460B439B0703D009E008C9121F08C090
:1001B000042AFAD203E00B780370401C491C521E3B
:1001C000F9D27047D2B201E00270401C491EFBD246
:1001D00070470022F6E710B513460A460446194652
:1001E000FFF7F0FF204610BD421C0178401C00299B
:1001F000FBD1801A7047034603220870000A491C8D
:10020000521EFAD51846704710B5202A04DB014665
:10021000203A9140002010BD914020239C1A0346B3
:10022000E3401943904010BD10B5202A04DB084676
:10023000203AD040002110BD0B46D340D0402024AE
:10024000A21A91400843194610BD0000064C012532
:10025000064E05E0E36807CC2B430C3C984710346E
:10026000B442F7D3FFF730FFB82F0008D82F0008AB
:100270000EB5027869460A71018806230A1269469A
:100280004A7102798A7181880A126946CA71027AB2
:100290000A72008900220012487201A800900448E6
:1002A0000189808802F0CDFA002800D047200EBDD9
:1002B0000C000020F0B58BB01B2468460476C526E0
:1002C0004676D5278776A525C576022101770022B7
:1002D0004277B42282779A22C277E12208A802707C
:1002E000112242703A228270CF22C27080220271A3
:1002F0006E22427136228271C17139480090072303
:10030000012206A9022002F024FA002864D16846DE
:100310000476C5214176D5218176C57602270777F7
:1003200000264677FC2181778F21C177E12108A83B
:100330000170112141704A218170CF21C170A0212B
:100340000171782141713E218171E221C1712449FD
:100350001020891C05910390009021480296049674
:100360000196001F012306AA0221808802F02FF9BE
:10037000002831D168460476C5214176D5218176A1
:10038000C5760777467736218177AC21C177E121A1
:1003900008A80170112141704B218170CF21C170DB
:1003A0008021017144710A2181713421C1710C498C
:1003B0001020091D03900591122000900422084886
:1003C000029204960196001F062306AA0221808845
:1003D00002F0FDF8002800D047200BB0F0BD00006F
:1003E00010000020F0B591B01B2608A80671C527A3
:1003F0004771D5248471A525C571022101720021A0
:100400004172D02181728221C172E22202731122D3
:10041000427377228273E422C273402202741A224A
:10042000427481744221C174884800900A230122D9
:1004300009A9022002F08DF900287DD11B2108A80E
:1004400001714771D5218171A521C1710224047206
:1004500000214172E3228272A922C272E222027357
:100460001122427377228273E422C2732022027423
:10047000552242742E228274A322C274734A0094BD
:10048000921C724D102604200491059201910223C2
:10049000039602900A3D09AA1946688902F097F866
:1004A0000028CAD10E2108A80175E11E41756849CE
:1004B0006846C186002108A8017641768176654AA2
:1004C0006846828710A808900DAB07910720059118
:1004D00001220696029301900492039100900FABC3
:1004E000A989688902F0C9F80028A6D11B2108A8AB
:1004F0000171C5214171D5218171A521C1710221EF
:100500000172002444720B2282728422C272E2229F
:100510000273112242738B228273E422C2738022FF
:100520000274C422427420228274CD22C2742A46EC
:100530000E320420049400E084E0059203960194B6
:1005400000910290032309AA688902F040F800286C
:1005500078D10F2108A80175611F41754F21C9018C
:100560006846C18608A804764476210A817639490E
:1005700068468187102110A8069107260594012757
:10058000089007940DA8019602A9009691C10FAB9F
:100590003A46E989688902F070F8002852D11B2197
:1005A00008A80171C5214171D5228271A522C271AD
:1005B00002230372447273228272A022C272E22268
:1005C0000273112242738C228273E422C27360226E
:1005D00002740B2242748174C7742A4610321021AF
:1005E000009304200592039104940194029009AAB7
:1005F0001946688901F0EBFF002823D1062108A8DD
:100600000175C91F4175272109026846C18608A8DE
:1006100004764476210A81760E4968468187102146
:1006200010A806910594089007940DA8019602A9B8
:10063000009691C10FAB0122298A688902F01DF84A
:10064000002800D0472011B0F0BD000016000020A7
:100650002F2700000429000030B5002487B00128AE
:1006600001D9A41E28E0164A81005258C10115483C
:1006700042500D181449886B0122520410438863BC
:10068000C86A01221043C862C86A694610400590D2
:100690000C20009002200190002002900390042082
:1006A00004900520000700F0B9F9284601F078FA17
:1006B000002801D00324E443204607B030BD0000E9
:1006C00034000020C00100200010024010B500F0EE
:1006D00071FA10BDF0B50F4A87B0D36A01210B4300
:1006E000D362D26A0C4D0A40440000922A5B029108
:1006F00003910221094F049101928600B85901A982
:1007000000F08CF9295BB859002200F04CFA002067
:1007100007B0F0BD00100240822F00082C0000201E
:1007200010B5054A4100515A044A8000105800F0A3
:1007300036FA002010BD0000822F00082C00002097
:1007400001490120887070470800002010B5074A51
:100750004100515A064A8000105800F01BFA002848
:1007600001D0002010BD012010BD0000842F000822
:1007700030000020F0B50446244887B0C36A002644
:1007800004221343C362C06AA50010400590204AAA
:100790006000105A00900220029003901D4800292A
:1007A000405911D01C490191694600F037F91848A9
:1007B000E2000C304159174808301018074600F085
:1007C00099F800280FD105E000210191694600F059
:1007D00025F917E00E480021001D4259384600F067
:1007E000A3F8002802D00326F6430BE008480022B5
:1007F0000830415905460C3D285700F02BFA285780
:1008000000F01EFA304607B0F0BD000000100240B4
:10081000842F0008300000200000111010B50E4990
:100820000C4808600D4800240168491C016001293A
:100830000ED1094800F033FE002809D1064801F026
:100840005DFA054801F08EF9002801D00724E44341
:10085000204610BD00300140680100202400002027
:1008600038B501231B03009313460A4601460024B2
:10087000034800F058FE002800D0A41F204638BDD1
:100880006801002010B50020FFF75AFF10BD0000DE
:1008900010B5024800F036F810BD0000000000203E
:1008A00010B5024800F02EF810BD000038000020FE
:1008B00003480122426141800520401EFDD170475E
:1008C0000C000020034800214161012202704170A8
:1008D000704700000C00002070B5044600F06AF973
:1008E0000546601C00D0641C00F064F9401BA04267
:1008F000FAD370BD002802D00160002070470120AB
:10090000704700000178CA06D20E01219140054AC5
:1009100053690B4204D051614068002800D0004761
:10092000704700000004014003460020002901D068
:10093000012070475A607047F0B500235DE0012444
:100940009C4022460A4057D006685F000325BD4000
:100950002E43AC460660DD08AD002D182E6AAE466B
:100960005D07EF0E0F25BD40AE4375462E628668CB
:100970006546AE4386604568A5434560C4686546E4
:10098000AC43C4609D081F4CAD002D19AF689C0797
:10099000260F0F24B440A4463C4005273F07B84229
:1009A00001D1002714E0184FB84201D101270FE010
:1009B000164FB84201D102270AE0154FB84201D1C3
:1009C000032705E0134FB84201D1052700E00627B1
:1009D000B740A74210D1AE686446A643AE600E4C45
:1009E000256895432560656895436560A5689543CE
:1009F000A560E5689543E5605B1C0A46DA409ED138
:100A0000F0BD00000000014000040050000800504C
:100A1000000C0050001C005000040140F8B50023F9
:100A20000124A2E027469F403A4070D04D68022D35
:100A300001D0122D14D1DD08AD002D1800952D6ABE
:100A40005E07AC46F50E0F26AE46AE406546B54392
:100A5000AC460E697546AE4065462E43009D2E623B
:100A60004D68012D05D0022D03D0112D01D0122D7E
:100A700016D185680326AC465D00AE46AE4065469D
:100A8000B543AC46CE687546AE4065462E4386609B
:100A900046680D79BE43ED06ED0F9D403543456038
:100AA00006685F000325BD40AE46AE430D79B446EF
:100AB000AE07B60FBE4065462E430660C668754653
:100AC000AE438D68BD403543C5604D68ED004BD5E4
:100AD000294D6E6B26436E639E08284DB60075192E
:100AE000AC46AD689E07360F0F27B740BD430527BC
:100AF0003F07B84201D1002715E0214FB84201D18C
:100B0000012710E01F4FB84202D102270BE02BE073
:100B10001D4FB84201D1032705E01C4FB84201D157
:100B2000052700E00627B7402F436546AF60184D04
:100B30002E684F689643FF0300D516432E606E68FB
:100B40004F689643BF0300D516436E60AE684F688A
:100B50009643FF0200D51643AE60EE684F68964399
:100B6000BF0200D51643EE605B1C0A681546DD40E7
:100B700000D057E7F8BD000000100240000001401F
:100B80000004005000080050000C0050001C0050F1
:100B9000000401400069084000D00120704742690C
:100BA0004A4042617047002A01D0816170478162EA
:100BB00070470000014800687047000040000020B6
:100BC00002480168491C0160704700004000002095
:100BD00010B50848002401684022114301602046F6
:100BE00000F00AF8002801D0012401E000F01CF810
:100BF000204610BD0020024070B5054609487D2101
:100C00000024C9000068FFF773FA00F085FD002892
:100C100001D0012404E000222946501E00F01AF8F9
:100C2000204670BD440000200448416B012211435E
:100C30004163816B020411438163704700100240DD
:100C4000C106C90E012088400149086070470000B4
:100C500000E100E010B500F0BFFF10BDF8B504469C
:100C60000068614D810601D400057DD55E4E0027E8
:100C7000403EB06BC00004D4B06B31040843B06395
:100C800001275A480168C90511D40168821511432A
:100C90000160FFF78FFF009005E0FFF78BFF0099E1
:100CA000401A642844D851480068C005F5D5316819
:100CB00003200005626801401040884205D10323EB
:100CC000A0681B051840884208D09003800F0328B5
:100CD00004D13068800301D50120F8BD28690321C3
:100CE0000904084029D00A40824202D022789206A4
:100CF00006D4A2680A4082421FD0208800051CD575
:100D000028692A6988430121C9040A432A612A699A
:100D10008A432A612861C0050FD5FFF74BFF009079
:100D200008E0FFF747FF0099411A3148814201D995
:100D30000320F8BD28698005F3D561688803800F1A
:100D4000032805D132680005824301400A4332601E
:100D50002869032261681204114008432861002FAA
:100D600006D0B16B012000E002E000078143B163CF
:100D70002078C00705D0E868E16880088000084353
:100D8000E8602078800705D5E8680C218843216950
:100D90000843E8602078400706D5E8680321890207
:100DA000884361690843E8602078000706D5E86851
:100DB000032109038843A1690843E86020784006BD
:100DC00006D5E868012189068843216A0843E8605E
:100DD0002078000606D5E868032189048843E16984
:100DE0000843E8600020F8BD401002400070004059
:100DF00088130000F8B50E4605007DD05348006802
:100E0000C007C00FB0420AD25048016849084900E3
:100E1000314301600068C007C00FB04271D128782B
:100E20004B4C800705D5E068F0218843A96808434A
:100E3000E0602878C00752D06868022817D00328DD
:100E400018D02168012818D08905002959DAE168ED
:100E5000890889000143E160FFF7ACFE6968074635
:100E6000022912D003291CD0012926D033E02168A1
:100E70008903EAE721688901E7E74907E5E7FFF722
:100E800099FEC11B3348814223D8E0680007800FD8
:100E90000228F4D123E0FFF78DFEC11B2D488142CB
:100EA00017D8E0680007800F0328F4D117E0FFF798
:100EB00081FEC11B274881420BD8E0680007800FE4
:100EC0000128F4D10BE0FFF775FEC11B21488142D8
:100ED00001D90320F8BDE0680007800FF3D11B485B
:100EE0000168C907C90FB1420DD901684908490015
:100EF00031430160006800E003E0C007C00FB0426A
:100F000001D00120F8BD2878400706D5E068072108
:100F100009028843E9680843E0602878000707D59C
:100F2000E0680721C90288432969C9000843E060D5
:100F300000F036F8E168084A0906090F515CC8401C
:100F4000064908600020FFF757FEF8BD0020024068
:100F50000010024088130000942F00084400002075
:100F6000044805490068C968044A4905490F515CAD
:100F7000C84070474400002000100240AD2F000818
:100F8000044805490068C968044A8904490F515C4E
:100F9000C84070474400002000100240AD2F0008F8
:100FA00010B5184AD1680C20084004280BD0082836
:100FB00010D00C2810D050680004410F0120C0034D
:100FC000491C884010BD1068C00601D50E4810BDF0
:100FD0000E4810BD0E4810BD88020E4B000F185C65
:100FE0000902D368890F491CDB0301D5084A05E0D3
:100FF0001268D20601D5044A00E0044A5043FFF7C4
:1010000077F810BD0010024000093D000024F400F4
:1010100000127A00A42F0008FEB505007ED0FE4C19
:10102000E7680C20E66807400120000406402878A5
:10103000C00747D0082F05D00C2F0AD1012000048B
:10104000864206D1206880033CD568680028E5D038
:1010500038E0012069680004814203D1216801431E
:10106000216011E0052301221B04920499422168AA
:1010700002D111432160F1E78143216021680140E1
:101080000091206890432060686800280DD0FFF729
:1010900091FD009005E0FFF78DFD0099401A64284E
:1010A0007AD820688003F6D50CE0FFF783FD009026
:1010B00005E0FFF77FFD0099401A6428F0D820680A
:1010C0008003F6D42878800755D50923E868042FD3
:1010D0000DD00C2F01D1002E09D000283BD0216863
:1010E000994301432160FFF765FD064627E021682B
:1010F000490701D5002891D061681F22120291434F
:101100002A691202114361602168994301432160F9
:10111000FFF746FFE16809060A0F00E0BBE1BF499F
:10112000895CC840BE4908600020FFF765FD0028C3
:1011300072D120E0FFF73EFD801B0228B0D8206866
:101140004007F7D560681F21090288432969090211
:10115000084360600FE02068400840002060FFF70F
:1011600029FD064604E0FFF725FD801B022897D8DD
:1011700020684007F7D42878C0065FD5002F0CD030
:10118000E869002849D02068FF2101310843206028
:10119000FFF710FD06462DE0E4E02068800502D54B
:1011A000E8690028A7D06068072149038843696A75
:1011B000084360606068298C0002000A0906084341
:1011C0006060686A410B0120C003491C8840E168E7
:1011D00009060A0F9149895CC840914908600020BE
:1011E000FFF70AFD002817D128E0FFF7E3FC801B7A
:1011F0000228A3D820688005F7D560680721490335
:101200008843696A084360606068298C0002000AAC
:1012100009060843606011E023E12168FF200130E6
:1012200081432160FFF7C6FC064604E0FFF7C2FCDD
:10123000801B02289BD820688005F7D42878794E37
:10124000000724D568690028306910D001210843BF
:101250003061FFF7AFFC009005E0FFF7ABFC0099B1
:10126000401A02287ED830698007F6D50FE0400882
:1012700040003061FFF79EFC009005E0FFF79AFC0C
:101280000099401A02286DD830698007F6D4287872
:10129000400764D500200290A06BC00006D4A06B6C
:1012A000012109070843A063012002905E480168FC
:1012B000C90511D40168821511430160FFF77AFC5A
:1012C000009005E0FFF776FC0099401A642849D8A1
:1012D00055480068C005F5D5FF20AA680130824254
:1012E00003D131690143316111E001218902002AF2
:1012F00007D005231B029A4203D132690A433261A7
:10130000EFE7326982433261306988433061A8680F
:1013100000280ED0FFF74EFC009006E0FFF74AFCD5
:101320000099411A414881421CD830698005F5D5A1
:101330000DE0FFF73FFC009006E0FFF73BFC009953
:10134000411A3A4881420DD830698005F5D4029897
:10135000002804D0A16B012000078143A1632878F5
:10136000800600E07CE02ED53148A96943140029AD
:1013700016D0A26801210A43A260626B0A4362632D
:10138000016A19430162FFF715FC064604E0FFF706
:1013900011FC801B022863D8A0688007F7D512E0F3
:1013A000A16849084900A160016A99430162FFF7F9
:1013B00001FC064604E0FFF7FDFB801B02284FD826
:1013C000A0688007F7D4A86A002866D00C2F4DD0FB
:1013D000012636060228206805D0B0432060FFF7BA
:1013E000E9FB05463EE0B0432060FFF7E3FB07461C
:1013F00004E0FFF7DFFBC01B022831D82068800122
:10140000F7D4296BE86AE2680843696BFD231B0483
:101410009A43114308430DE000100240942F000846
:10142000440000204010024000700040881300007B
:1014300000000140E060206830432060FFF7BAFB05
:10144000054604E0FFF7B6FB401B022808D82068D9
:101450008001F7D521E0FFF7ADFB401B022801D941
:101460000320FEBD20688001F5D416E00128F8D0E5
:10147000E06801210904EA6A014091420BD10F2181
:1014800089042A6B0140914205D103218905084056
:10149000696B884201D00120FEBD0020FEBD4030B6
:1014A000407C704770B5040007D0002625464035C3
:1014B000A662687C002802D005E0012070BD2E7471
:1014C000204600F02FF8022068742068016840224E
:1014D00091430160A168606822690843E168114393
:1014E0000843616901220843A1695202114008437F
:1014F000E1690843216A0843A16A0843216808603A
:10150000A0690421000C0840616A08432168486012
:101510002068C16992009143C161666501206874C9
:10152000002070BD7047FFB5044683B001200190D4
:101530000020264640360090307C0C9F1D46012836
:101540000FD001203074FFF735FB0290707C61688A
:1015500001280DD0CA1FFD3A08D1A168002905D184
:1015600002E0022007B0F0BD042801D00220C3E051
:101570000498002828D00598002825D0002D23D0D5
:10158000707C042801D005207074002060650599E6
:10159000A163E587A58704992163E586A586206474
:1015A000606420680168490603D401684022114341
:1015B00001600121E068C9028842606848D10028C2
:1015C00004D0012D02D03CE0012095E0206B216881
:1015D0000088C860206B801C2063E08E401EE0867F
:1015E0002FE020688168890710D5E18E00290DD091
:1015F000019901290AD1216B0988C160206B801CE7
:101600002063E08E401EE086002001902068816803
:10161000C9070DD0E18F00290AD0C068A16B0880EE
:10162000A06B801CA063E08F401EE087012001902A
:10163000FFF7C0FA01460298081AB84201D3781C95
:1016400059D1E08E0028CCD1E08F0028C9D146E0E6
:10165000002801D0012D3CD1206B2168007808734F
:10166000206B401C2063E08E401EE08631E0206845
:101670008168890710D5E18E00290DD001990129D3
:101680000AD1216B09780173206B401C2063E08E26
:10169000401EE0860020019020688168C9070DD0B7
:1016A000E18F00290AD0C068A16B0870A06B401CB4
:1016B000A063E08F401EE08701200190FFF77AFAD7
:1016C0000299401AB84202D3781C02D013E0002FCE
:1016D00011D0E08E0028CAD1E08F0028C7D139464A
:1016E0002046029A00F038FB002807D00120009025
:1016F0002020606509E00320009006E0A068002833
:1017000003D12068C16880680190012070740020B6
:101710003074009826E70000094910B5401E884241
:1017200001D9012010BD074C60610321081F00F0A2
:1017300053FA0020A06107202061002010BD0000A6
:10174000FFFFFF0000E000E010B5040003D0606F71
:10175000002802D007E0012010BD002170200155B3
:10176000204600F026F824206067206801684908B8
:1017700049000160204600F065FC0128ECD0606A59
:10178000002802D0204600F0C7FB206841680922EB
:10179000D20291434160206881682A22914381608E
:1017A00020680168012211430160204600F01AFC04
:1017B00010BD704710B50524240701212046FFF70E
:1017C000BBF802212046FFF7B7F8FF210131204680
:1017D000FFF7B2F8002010BD70B5154886B0C16A99
:1017E00001252943C162C06A00952840059011482F
:1017F0000526002436070190694602943046FFF71B
:101800000DF9280200900294694601950394304630
:10181000FFF704F9022000900294694601950394B1
:101820003046FFF7FBF8FEF7F9FF06B070BD000089
:101830000010024000001110F0B587B00E460746B8
:10184000FF216846017019A003C804900025059186
:1018500005202A4602210007FFF7A5F9052201A964
:1018600004A8FEF7FDFF68460079022815D16846F6
:10187000017AC0790C0204430FD0B4420BD934462C
:1018800009E0012203A96846FEF7EAFF6846007BEB
:1018900078556D1CEDB2A542F3D30520012202213B
:1018A0000007FFF780F9284607B0F0BD0B000000E5
:1018B0000000000070B5FF24052501342D0700222B
:1018C00021462846FFF76FF90520FFF705F80122AA
:1018D00021462846FFF767F90520FEF7FDFF0020A7
:1018E00070BD0000F3B51EA103C985B0039102903D
:1018F000FFF760F90027FF43052605463607002459
:10190000224602213046FFF74EF90522694602A819
:10191000FEF7A6FF6846007802280DD03C4601225B
:1019200002213046FFF73FF9FFF744F9401B0F282B
:1019300010D90224E4430FE06846417806988142BA
:1019400005D3024608490598FEF78AFFE7E7012418
:10195000E443E4E7002CD2DB204607B0F0BD0000F2
:101960000A000000000000005C000020FEE700000C
:1019700001B582B002A8009005480223018A002226
:10198000408900F05EFF002800D047200EBD000017
:101990000C00002070B539A103C98CB001910090F2
:1019A00034A501210020FEF7E5FE0020FEF792FE9F
:1019B0000020FEF751FE0020FEF7C8FE314C60709B
:1019C0000021314800F0EEFF0AA904A800F0C4FF8E
:1019D00001F0C0F86420FEF77FFF6846007C012616
:1019E000302803D92670022069464871009807AA5A
:1019F000019903C206210020083A00F07FFF00F0A1
:101A000005FF2078012813D009AB06AA05A90120FB
:101A100000F0CCFC2846FEF7E7FBC3B26846009511
:101A2000018B0022808A00F00CFF00280BD0FEE71B
:101A300009A906A80191009005AB07220021012009
:101A400000F0EFFCE6E7114800211022009202901E
:101A50000723039601910A46012000F01EFDFEF7C0
:101A600029FCFEF7BFFC0421012000F026FF0CB08A
:101A700070BD0000426C75654E524700123400E1A3
:101A80008003000008000020292F000840E2010028
:101A900010B5034800F01CFC01F086F910BD0000F1
:101AA0005C010020F0B587B014216846FEF791FB79
:101AB0002848C26A04210A43C262C26A0A400592E7
:101AC000C26A80210A43C262C26A0A400592C16AA0
:101AD00001252943C162C16A29400591C26A0221D8
:101AE0000A43C262C06AFF260840052723363F0723
:101AF0000590002231463846FFF755F868030090FC
:101B0000154800240190694602941448FEF786FFA8
:101B1000134801906946009502943846FEF77EFF0F
:101B2000029469463846009601950394FEF776FFC5
:101B3000002211460520FFF78DF80520FFF780F8F9
:101B4000002211460720FFF785F80720FFF778F8F5
:101B500007B0F0BD00100240000021100008005046
:101B60000000111010B50D49016000248460C460AC
:101B700004614461C461046201224462FF21520293
:101B800084620531826141600721C162FFF78AFCEE
:101B9000002800D00124204610BD00000030014084
:101BA00010B50B49016000248460C4600461846145
:101BB000C4610462E1210C22446249024261416035
:101BC000FFF7C2FD002800D00124204610BD000010
:101BD00000440040704700008307FF22DB0E9A405C
:101BE0008907090E994000280BDA0007000F083812
:101BF000830808489B001818C36993430B43C361CB
:101C00007047830804489B001B18186890430843DA
:101C10001860704700ED00E000E400E0704700004D
:101C200001B582B002A8009005480323C1890022B3
:101C3000408900F006FE002800D047200EBD0000BD
:101C40000C00002070B5294C2189491C884203D121
:101C50002748FEF70DFB41E0A189264D491C88422B
:101C600013D1FEF78BFA0F2100F06CFB2A460023FC
:101C7000FEF754FAFF210F31401805B21C48FEF759
:101C8000F7FA284600F036F928E0E189491C884235
:101C900011D16420FEF720FEFEF770FA7D21C90005
:101CA00000F050FB2A460023FEF738FA124940188C
:101CB000FFF7B6FF12E0218A491C88420ED1FEF7D9
:101CC0005DFA642100F03EFB2A460023FEF726FA67
:101CD000FF21C331401880B2FFF74AFE6088002818
:101CE00002D0608800F071FD70BD00000C00002083
:101CF0005C010020FFFFFF7FA086010070B5144843
:101D000086B0416B821411434163C16A01221143C1
:101D1000C162C16A11400591C16A02242143C162B6
:101D2000C06A002520400590C0200326694671C185
:101D30000520694600070495FEF770FE08206946F5
:101D400071C1694603480495FEF768FE06B070BD90
:101D5000001002400004005038B504464068FF23DC
:101D600005332025984204D100920B4600228021A1
:101D700007E05120005D05280DD100920B4600229E
:101D80000121204600F009F8002804D0606D2843A6
:101D90006065032038BD002038BDF8B51D461746E4
:101DA0000E46044609E0681C07D0FEF703FF0699BB
:101DB000401AA8420BD2002D09D020688168304615
:101DC00088432ED00020B842EDD10020F8BD206815
:101DD0004168E022914341606068C11FFD390CD128
:101DE0000121A068C903884202D04911884204D168
:101DF000206801684022914301600120A16A4003EC
:101E0000814207D121680A6882430A6021680A6812
:101E100002430A60012040346074002020740320D3
:101E2000F8BD0120CFE7704710B5FEF7C9FE10BD21
:101E300010B59CB038216846FEF7CBF9142117A8DD
:101E4000FEF7C7F924210EA8FEF7C3F9134801686D
:101E50000322D2029143C21489180160102000901D
:101E600001200790052000244003099008940A945B
:101E70006846FFF7D1F80F201790189419941A9418
:101E800000211B9417A8FEF7B5FF02200E901294B4
:101E90000EA8FEF7E3FE1CB010BD0000007000406D
:101EA00010480168821511430160C1680E4A114053
:101EB000C16001680D4A114001608168490849000C
:101EC000816001680122920491430160C168FD2292
:101ED00012049143C160002101610549C00388607B
:101EE00070470000001002400C40FF88F6FFF6FE2D
:101EF00000ED00E001B582B002A800900548022381
:101F000081890022408900F09CFC002800D04720F5
:101F10000EBD00000C00002010B5818CC90707D051
:101F200001684A6801235B049A43836A1A434A6042
:101F3000818C890707D501684A6801231B049A43ED
:101F4000C36A1A434A60818C490707D501684A6809
:101F500001239B049A43036B1A434A60818C09074F
:101F600007D501684A680123DB039A43436B1A4390
:101F70004A60818CC90607D50268916801231B035A
:101F80009943836B19439160818C890607D5016859
:101F90008A6801235B039A43C36B1A438A60818C6E
:101FA000490612D503685A6801210905046C8A4361
:101FB00022435A60026C8A4207D1026851680323A7
:101FC0005B059943436C19435160818C090607D521
:101FD00001684A680123DB04806C9A4302434A602B
:101FE00010BD0000F8B500260446C667FEF7E2FD06
:101FF000054620680068124F000709D501212B46CD
:10200000002249052046009700F030F900280DD144
:102010002068006840070BD501212B460022890566
:102020002046009700F022F9002801D00320F8BDD7
:1020300020206067A067603426740020F8BD00008F
:10204000FFFFFF01F8B504462669A268E76932433D
:102050006669102000253E432368324378491E6894
:10206000784F3E4016431E6023685A6803263603A5
:10207000B243E66832435A602368A2698B4201D0BA
:10208000266A32439E680B273F02BE4316439E607A
:102090006D4E23686D4AB3420CD1D2689207920FFD
:1020A00006D0012A38D0022A34D0032A20D11EE0DB
:1020B00001201DE0664EB3420AD1D2680C263240A0
:1020C00026D0042A28D0082A24D00C2A10D10EE0C9
:1020D0008B420DD1D66803229202164018D00122FD
:1020E0009202B61A18D0B61A14D0964200D108201F
:1020F000564A0126403A574FF6038B4236D1002804
:102100000CD002280DD0042812D008281FD11CE0C2
:102110000020EDE70220EBE70420E9E7FEF720FFCF
:1021200008E01068C00601D5384605E04A4803E0DB
:10213000FEF736FF002873D06268510051188142C3
:1021400005D81103814202D303E03046F4E70125AC
:1021500066E0010E06025008002330185941FDF7D1
:10216000DDFF03210902411A3C4A55E0E169B14211
:1021700032D1030000F0FEF809070A0D0625060615
:10218000062B0600E3E7FEF7EBFE1CE0FEF7F8FE89
:1021900019E010686168C00602D54808304A01E0BD
:1021A000304A48088018FDF7A3FF80B201462E4A46
:1021B00010399142CBD8511C01400007400F084311
:1021C0002CE0FEF7EDFE616840004A08EAE761682E
:1021D000012248081204E5E7030000F0CBF80907E4
:1021E0000A0D06260606062C0600B0E7FEF7B8FE26
:1021F0001DE0FEF7C5FE1AE010686168C00602D552
:102200004808C01902E014484A081018FDF770FF8A
:1022100080B20146144A1039914298D82168C860AA
:102220000020206660662846F8BDFEF7B9FE6168AA
:102230004A088018EAE7616848088019E6E7000064
:1022400000480040F369FFEF0038014040100240B1
:102250000044004000093D000024F400FFFC0F0092
:1022600000127A000048E801EFFF0000FFB581B0DE
:1022700017460E4604460A9D09E0681C07D0FEF783
:1022800099FC0499401AA8420CD8002D0AD0206865
:10229000C1693046884318D00020B842EDD00020F4
:1022A00005B0F0BD20680168FF22A13291430160B2
:1022B0002068816849084900816020206067A06724
:1022C0000020603420740320EAE70120E5E70000E5
:1022D00070B5194D044628780026002802D000F079
:1022E00003FE2E70154DA878002822D03220FEF76C
:1022F000F3FA0020FEF72AFA697800291AD00021A3
:102300008842F6D03220FEF7E7FA0020FEF708FAFE
:102310000B48006800280BD020686430206060689B
:1023200064306060A0686430A0602046FDF7A0FFC4
:10233000AE7070BD0121E3E70C0000200800002012
:1023400020000020F8B504148BB2264682B25E430A
:102350000D14104637145843360480190021794172
:1023600016466E43371436048019794126466E436B
:102370008919F8BD30B47446641E2578641CAB42DC
:1023800000D21D46635D5B00E31830BC184702E0D5
:1023900008C8121F08C1002AFAD1704770470020F0
:1023A00001E001C1121F002AFBD1704770B58AB04D
:1023B0000E46694608700020019002901C461546A2
:1023C000182103A8FDF705FF3F20694688818A2070
:1023D000C8810120069001A8079007200591089068
:1023E000002103A800F0D0FB002802DAFF200AB089
:1023F00070BD684600790028F9D168468179427934
:102400000802104330806846017AC27908021043FE
:1024100028806846817A427A080210432080002092
:10242000E5E7F0B589B06C460E9F0F9E2070617095
:10243000A2700020019002901D46182103A8FDF70C
:10244000C8FE3F20A0818A20E0810320069001A8D9
:102450000790072008900594002103A800F094FB42
:10246000002802DAFF2009B0F0BD68460079002894
:10247000F9D168468179427908021043288068467C
:10248000017AC2790802104338806846817A427A1C
:102490000802104330800020E5E7F0B58FB01D46FC
:1024A000134602466846179F169E0270417010221E
:1024B00019466C46801CFDF773FE684685741499B6
:1024C000C1741599017505A901313046FDF793FED8
:1024D00068464776182108A8FDF77BFE3F2168462D
:1024E0000184862141841A200B9007A80C900120BA
:1024F0000D900A94002108A800F046FB002802DA9B
:10250000FF200FB0F0BD6846007FFAE7FFB591B03D
:102510001D9E1B9D1A9AA9190E31282902D9422005
:1025200015B0F0BD6C46207010A908890881087AA2
:102530006070487AA07088898881087BE070487B49
:1025400020716371A271E5712046012708302A4687
:102550001C99FDF725FE0835E8B22654401CC5B28B
:10256000601932461E99FDF71BFE10A98A8F8A87D3
:10257000A819C0B2221818A9097F117018A9497F9B
:10258000517020A90A88801C0A80C0B222180978DC
:10259000117020A94978801C5170C5B218210BA870
:1025A000FDF717FE3F20694688858320C8850AA865
:1025B0000F90002110970E950D940BA800F0E4FAEF
:1025C000002801DAFF20ABE708A8007AA8E7FFB5EA
:1025D0008FB01F4613466846828F828708A86D46D3
:1025E000027F2A70427F6A700326A970012935D0C4
:1025F0001024E81C22461946FDF7D2FDE41C2F5595
:10260000641C18982855641C19982855641CE0B25D
:102610001A992954401CC0B21B992954401CC0B2BD
:102620001C992954401CC4B200200790182108A806
:10263000FDF7CFFD3F2168460184FF21053141842C
:1026400007A80C9000210D960A950B9408A800F09D
:102650009BFA002804DAFF2013B0F0BD0224C8E77B
:102660006846007F0028F7D16846817F427F0802D4
:102670001D99104308800020EEE7FFB5A7B019466A
:1026800020A8838B309F319E83836D46037F2B7000
:10269000437F6B70038C038428A80378AB70437866
:1026A000EB702A71012A10D01024681D2246FDF714
:1026B00077FD641D2F55641C2E55641C3019401D78
:1026C000802804D942202BB0F0BD0224EDE7281960
:1026D00032463299FDF764FDA019C0B233992954EE
:1026E000401CC0B234992954401CC0B235992954B9
:1026F000401CC0B236992954401CC0B237992954A5
:10270000401CC4B200202690182120A8FDF761FDCE
:102710003F2120A80180FF210631418026A8249076
:102720000320259022952394002120A800F02CFA64
:10273000002801DAFF20C6E720A8007E0028C2D1C9
:1027400020A8817E427E080238991043088000202C
:10275000B9E7F0B58DB06D461E46174628700128C2
:1027600024D010242246681CFDF71AFD641C2F5546
:10277000641C2E5500200590182106A8641CFDF746
:1027800028FD3F2168460183FF210331418305A8CD
:102790000A9003200B9008950994002106A800F0E8
:1027A000F3F9002804DAFF200DB0F0BD0224D9E7C8
:1027B0006846007D0028F7D16846817D427D080289
:1027C0001299104308800020EEE700B589B06946F1
:1027D0008883182101A8FDF7FCFC3F20694688800A
:1027E000FF202830C88007A8039002200490012011
:1027F00005910690002101A800F0C6F9002802DA30
:10280000FF2009B000BD68460078FAE700B587B040
:10281000182101A8FDF7DDFC3F2168468180FF21DA
:102820000231C180059001200690002101A800F02E
:10283000ABF9002802DAFF2007B000BD6846007837
:10284000FAE77FB5A8B09D1D3099802D02D94220AE
:102850002CB070BD20AC208C208428AC6E46207833
:1028600030706078707020ACA08CA08428AC207987
:10287000B0706079F070327173711A46B01DFDF757
:102880008FFCEDB2182120A8FDF7A3FC3F2020AC5F
:102890002080FF200730608027A824900120259009
:1028A000229623950021204600F06EF9002801DAD7
:1028B000FF20CDE720A8007FCAE700B589B06A46AF
:1028C00010705170182102A8FDF783FC3F206A4662
:1028D00010810F2050810220059001A80690012050
:1028E00007900492002102A800F04EF9002802DAB5
:1028F000FF2009B000BD68460079FAE770B51346BD
:102900008D1CA8B00246802D02D9422028B070BD8F
:102910006846027641760A4606AC012619461A3008
:10292000FDF73EFCEDB218216846FDF752FC3F2151
:10293000684601800C21418026A80490002105965C
:1029400003950294684600F01FF9002801DAFF2081
:10295000DCE720A8007ED9E730B587B0054601A89E
:102960000C46009005AB04AA02A903A800F044F8A5
:102970000006000E14D169460989090A29706946C2
:1029800009890A022280694689880906090F090116
:102990000A432280694689880907090F0A43228071
:1029A00007B030BD70B5114D002800D0E86100F0CF
:1029B000B5F90F4800F024FA0D48083000F020FA6D
:1029C0000C4E00248C2060438119094800F027FA3E
:1029D000641CE4B2052CF5D32968002901D000203D
:1029E0008847A868002800D0804770BDFC040020FC
:1029F0004800002040020020FFB589B000270E46A5
:102A00001C46154600970197182103A80297FDF769
:102A1000E0FB0421684681810121C18107900920E2
:102A2000089005970697002103A800F0ADF800284C
:102A300002DAFF200DB0F0BD684600780028F9D119
:102A40006846417809980170684640883080684639
:102A50000079287068468179427908021043208005
:102A60006846017AC2790802129910430880002052
:102A7000E0E730B58FB00D46044620216846FDF7EB
:102A8000A8FB684604701F2C00D91F242246044668
:102A90002946401CFDF784FB182109A8FDF799FB86
:102AA0000821684681840921C18420200C9008A84F
:102AB0000D9001200E900B94002109A800F064F8FD
:102AC000002802DAFF200FB030BD08A80078FAE72E
:102AD00038B5002004460090154800F0ACF90028F5
:102AE00002D00124204638BD6946114800F0AFF9F4
:102AF0001048C268002AF5D000988021083090471D
:102B000000060099000E0FD0882250540A460B7A16
:102B10000832042B08D19278C01E824204D10448A6
:102B2000083000F07CF9DDE7014800F06CF9D9E7E6
:102B300048000020FC040020054902680A60C268C1
:102B4000CA6002690A6182698A6180688860704728
:102B5000FC04002000B587B0182101A8FDF739FB5F
:102B6000032069468880C8800120059106900021D5
:102B700001A800F009F8002802DAFF2007B000BD24
:102B800068460078FAE70000F3B5044640882178EB
:102B90008005800D8902084385B2A5B00020019010
:102BA00022A800F02DF908E069465A4800F04FF9D4
:102BB00058480099083800F032F95648083800F0B3
:102BC00011F90228F0DB608821788005800D8902E8
:102BD0000843267B6946A76808808E70012008722A
:102BE00002A803220130FDF7DBFA3246394603A87A
:102BF000FDF7D6FA48480269002A02D0311D02A822
:102C000090472698002802D0002027B0F0BD7D26EE
:102C1000F600FDF7CFFF0746FDF7CCFFC01BB04223
:102C20006AD83C4800F007F90028F5D101A93948D5
:102C300000F00DF901980246017A0830042945D1C7
:102C400011468032127A40780B31D21E0E2818D0ED
:102C50000F2804D010284FD03E2837D11EE0C87866
:102C60008B7800021843A84246D160680F2803D031
:102C70000878002840D129E060690BE06261206992
:102C800018E08B784E7818023043A84234D1C91C22
:102C90006069D21E9042F1D80246EFE70878636877
:102CA000984213D16069521E904200D80246626178
:102CB000491C2069FDF774FA16480199083800F09C
:102CC000A2F822A9134800F0FCF89DE71148083843
:102CD00000F0B1F8002808D00E4800F0ACF8002849
:102CE00003D00C480199083801E022A8019900F0AE
:102CF00096F8002001908CE70199002903D005483F
:102D0000083800F080F822A9024800F0DAF8002024
:102D1000C0437AE750000020FC04002000B587B0D3
:102D200011480090114801901148049011480390F7
:102D300011480290114806906846FFF7FDFE0321F6
:102D400049060F48FDF7D6FD0E4A00210C48FDF755
:102D5000EBFD002211460520FDF77CFF0520FDF765
:102D60006FFF07B000BD0000D9170008B5170008B5
:102D7000E518000839180008B5180008CD06000845
:102D800000000020892D000810B50524240701212A
:102D90002046FDF7FFFE012804D10020FFF798FE32
:102DA0000028F4D010BD000038B500200B4C009076
:102DB0000EE069460A4800F04AF8E169002902D0AD
:102DC00000980830884706480099083800F027F82E
:102DD000034800F030F80028EBD038BDFC04002098
:102DE0005000002003460020EFF3108172B61A68ED
:102DF00001E01268401C9A42FBD181F310887047B1
:102E0000006040607047EFF3108272B603680B6099
:102E100048600160086882F3108841607047EFF3F2
:102E2000108272B6086043684B604160486882F364
:102E3000108801607047EFF3108172B60268824219
:102E400001D1012000E0002081F31088704730B5E7
:102E50000D46EFF3108472B601682960006800F037
:102E600008F8296800200860296884F31088486001
:102E700030BDEFF3108172B60CC808381A6005C86F
:102E800081F310884260704730B50D46EFF310842F
:102E900072B6416829604068FFF7EBFF296800209F
:102EA0000860296884F31088486030BDFDF790FE03
:102EB000FEF7BEFFFEF7F6FDFEF76CFDFEF7E8FD40
:102EC000FCE738B50C46054607E069462046FFF7A3
:102ED000DBFF28460099FFF796FF2046FFF7ABFF80
:102EE0000028F2D038BD000000B50DA103C989B09B
:102EF0000891079000210846FFF7BBFD002007AAB4
:102F0000082106900292059001914A0203900490D4
:102F1000034600900902FFF7F9FA09B000BD00006E
:102F200009426C75654E524710B5421C0078042862
:102F300014D11078052812D03E2813D0FF280DD1C7
:102F4000D0789178000208430C49921CC84205D100
:102F50005079117900020843FEF774FE10BDFDF7A9
:102F6000B1FC10BD9178901C0129FAD1C278837808
:102F700011021943801DFDF79BFC10BDECF3FFFF10
:102F80000700200000200000850800080F00000056
:102F90000D00000600000000000000000102030414
:102FA00006070809030406080C101820300000006A
:102FB0000001020304000000D82F000800000020D8
:102FC0005C0000008E230008343000085C00002004
:102FD000C40800009E23000800000000000000005C
:102FE00000010000010000000000000000000000DF
:102FF00000000000000000000000000000000000D1
:103000000000000000000050000800500044004094
:103010000D0000060000000000000000000020007D
:1030200000000000000000000000000000000000A0
:04303000000000009C
:04000005080000C12E
:00000001FF
